:100000000C944B000C9473000C9473000C947300CC
:100010000C9473000C9473000C9473000C94730094
:100020000C9473000C94B2050C9473000C94730040
:100030000C9473000C9473000C9473000C94730074
:100040000C9492060C9473000C94F4040C947300BA
:100050000C9473000C9473000C9473000C94730054
:100060000C9473000C947300E70001012601B200A8
:100070002601BD001B0131012601260126012601B2
:10008000260126012601260131012601260126012D
:1000900026012601CB0811241FBECFEFD8E0DEBF1A
:1000A000CDBF11E0A0E0B1E0ECEDF9E102C00590B8
:1000B0000D92AC33B107D9F721E0ACE3B1E001C058
:1000C0001D92A23AB207E1F710E0CBE4D0E004C001
:1000D0002197FE010E941E09CA34D107C9F70E9468
:1000E000F6060C94EC0C0C940000FC014483558340
:1000F000668377830895FB013196695F7F4F80E0C7
:1001000090E02191820F911DE617F707D1F79195A5
:10011000819591090895DC011B96EC911B97E134C0
:1001200019F493961C9208955F96EC935F971D9631
:100130008C911D9790E0982F88271E962C911E97E2
:10014000820F911D91969C938E9390974E2F50E025
:10015000FA01FA97E631F10508F083C0EC5CFF4F35
:100160000C941E095C961C925C9785E05E968C93BD
:100170005E9781E092968C93089580FF0BC05C9609
:100180001C925C9789E05E968C935E9781E09296D4
:100190008C93089581FF0BC05C961C925C9784E061
:1001A0005E968C935E9781E092968C93089583700F
:1001B0009927892B09F465C05C961C925C978AE0AC
:1001C0005E968C935E9781E092968C93089580FF63
:1001D0000BC05C961C925C9787E05E968C935E9752
:1001E00081E092968C93089581FF4BC05C961C929F
:1001F0005C9782E05E968C935E9781E092968C93FA
:10020000089580FF0BC05C961C925C9788E05E9618
:100210008C935E9781E092968C93089581FF31C014
:100220005C961C925C9783E05E968C935E9781E06F
:1002300092968C9308955C961C925C9786E05E96ED
:100240008C935E9781E092968C9308955C961C92B5
:100250005C978BE05E968C935E9781E092968C9390
:1002600008955C961C925C9781E05E968C935E97F5
:1002700091961C921E92909792968C939297939639
:100280001C920895CF93DF93EC01BC01685F7F4F10
:100290000E947B002F8530E0322F22274889240FCF
:1002A000311D41E02817390709F040E0842FDF9124
:1002B000CF9108951F93CF93DF93EC010E94D10457
:1002C000882309F452C01C8D111109C00E94D50465
:1002D00088878E3799F78C8D8F5F8C8FEFCF0E9438
:1002E000D504FE01E10FF11D80878C8D823079F0FD
:1002F0008930C9F08130B1F599859F3F99F11C8E05
:100300008E8F19A218A28AA31BA280E02FC09A8503
:10031000963041F11C8E81E08E8F19A218A28AA31B
:100320001BA280E023C089898F3E49F01C8E81E0AA
:100330008E8F19A218A28AA31BA280E017C0CE013B
:100340000E944201882331F01C8ECE010E948B0056
:100350008AA10CC01C8E91E09E8F19A218A29AA3AC
:100360001BA204C08F5F8C8FA9CF8AA1DF91CF9190
:100370001F910895CF93DF93EC018E89882349F074
:100380008BA1882331F0CE010E945A018BA18111EB
:10039000FACF6AE070E0CE0142960E94DD048E89B9
:1003A00091E0811101C090E09BA3811106C08FE311
:1003B0009CE90197F1F700C00000DF91CF9108950B
:1003C000CF93DF93EC016D8B5F8B488FBC016E5E2A
:1003D0007F4F0E947B00998F8A8FCE010E94BA01C5
:1003E000DF91CF91089540E050E00E94E001089530
:1003F000CF93DF93EC01CE010E945A018823D9F3F9
:1004000081E0DF91CF910895AB0163E00E94E001AC
:100410000895462F50E066E00E94E0010895462FBF
:1004200050E067E00E94E0010895462F50E069E047
:100430000E94E0012FEF83EC99E021508040904032
:10044000E1F700C0000008956CE00E94F3010895F8
:100450000F931F93CF93DF93EC01162F042F0E946D
:10046000E40280E90E94810360E875E280E090E0A8
:100470000E94BB04112319F081E08E8B01C01E8AFB
:100480000023A1F0CE010E94240240ED57E060E07D
:1004900070E0CE010E94F8012FEF83EC99E021502B
:1004A00080409040E1F700C0000002C084E08E8FE1
:1004B0001AA28E8D843029F0893029F081E08127BD
:1004C00003C081E001C081E0DF91CF911F910F91C6
:1004D0000895CF93DF93EC0162E40E94F30140E0C2
:1004E00050E0BA01CE010E94F801882339F01AA227
:1004F0008E8D8B3031F488A199A105C08FEF9FEFCD
:1005000002C08FEF9FEFDF91CF910895CF93DF93DC
:10051000EC01623041F0653051F0613059F467E42C
:100520000E94F30107C068E40E94F30103C069E47C
:100530000E94F30140E050E0BA01CE010E94F801B0
:10054000882339F01AA28E8D8B3031F488A199A1BD
:1005500005C08FEF9FEF02C08FEF9FEFDF91CF912C
:100560000895CF93DF93EC01623041F0653051F094
:10057000613059F46BE40E94F30107C06CE40E94FF
:10058000F30103C06DE40E94F30140E050E0BA01C2
:10059000CE010E94F801882339F01AA28E8D8B308B
:1005A00031F488A199A105C08FEF9FEF02C08FEFB2
:1005B0009FEFDF91CF91089562E00E948602089537
:1005C00062E00E94B10208951092B90088E480931D
:1005D000B8000895ECEBF0E080818823ECF70895F3
:1005E00084EA8093BC000E94EA028091B900887F6F
:1005F00090E008958093BB0084E88093BC000E9443
:10060000EA028091B900887F90E008955F926F922E
:100610007F928F929F92AF92BF92CF92DF92EF9292
:10062000FF920F931F93CF93DF933B01161617068C
:10063000A4F5C82FD92F84EC00E010E00F2EFCEBBE
:10064000AF2EB12CF02D0F2EF9EBCF2ED12CF02D9B
:100650000F2EFBEB8F2E912CF02D01C0852D7E01EE
:1006600091E06916710481F1582EF50180830E9492
:10067000EA02F6018081887F803519F08835B1F073
:100680000FC0F4018081888321960F5F1F4FF1E036
:100690006F1A710819F7C80124C080E090E021C0EA
:1006A0008FEF9FEF1EC08FEF9FEF1BC08091BB00AD
:1006B000F7018083C801019614C08091BB00F70147
:1006C00080830F5F1F4FE7CF84E88093BC000E94B8
:1006D000EA028091B900887F803579F3883531F35B
:1006E000E2CFDF91CF911F910F91FF90EF90DF90BC
:1006F000CF90BF90AF909F908F907F906F905F90C2
:10070000089580933C010895AF92BF92CF92DF92FB
:10071000EF92FF920F931F93CF93DF93A82E8B013D
:100720007A01CCE2D1E0C12CBB24B39405C0DC2C0F
:1007300001C0DB2CD1103FC00E94F0028031910536
:1007400029F088339105C1F30897D9F580913C01D0
:100750000E94FA028032910539F08833910539F30D
:10076000489751F0DB2C01C0DC2CDF93CF930E9423
:1007700094090F900F90DECF8A2D0E94FA028832E2
:10078000910519F0C897C1F2D4CF101611066CF478
:10079000C0E0F701EC0FF11D80810E94FA02CF5FEB
:1007A0008C2F90E080179107A4F384E98093BC001C
:1007B00081E090E008C084E98093BC0080E090E094
:1007C00002C08FEF9FEFDF91CF911F910F91FF90AC
:1007D000EF90DF90CF90BF90AF900895CF93DF93CD
:1007E0001F92CDB7DEB76983AE014F5F5F4F61E007
:1007F00070E00E9484030F90DF91CF910895EF92F3
:10080000FF920F931F93CF93C82F7B018A0106C0DD
:1008100084E98093BC008FEF9FEF3EC00E94F002FE
:100820008031910529F088339105C1F3089791F53E
:1008300080913C010E94FA028032910579F388335D
:10084000910561F3489721F78C2F0E94FA028832B4
:10085000910519F0C89711F3DBCF0E94F0028031A7
:10086000910529F088339105C9F2089789F680919E
:100870003C0181600E94FA028833910579F280344C
:10088000910531F6B701C8010E94060324E92093BF
:10089000BC0002C08FEF9FEFCF911F910F91FF908F
:1008A000EF900895CF93DF931F92CDB7DEB7AE01DF
:1008B0004F5F5F4F61E070E00E94FF03019719F402
:1008C000898190E002C080E090E00F90DF91CF91AD
:1008D0000895CF92DF92EF92FF92DC01CB01880F57
:1008E000991FAA1FBB1F880F991FAA1FBB1F9C011E
:1008F000AD01220F331F441F551F220F331F441F0A
:10090000551F60E070E081EE90E00E94FC086901F4
:100910007A0160E888E10E94EE036C2D80E00E947D
:10092000EE0399278F2D7E2D6D2D88E00E94EE031A
:10093000FF90EF90DF90CF9008950E94690463E0EC
:1009400088E10E94EE0366E080E10E94EE0361E030
:1009500080E10E94EE03089568E488E30E94EE03BC
:1009600088E30E94520421E030E0883411F020E056
:1009700030E0C9010895CF92DF92EF92FF926B01B0
:100980007C010E94E402C701B6010E949D040E94FE
:10099000AC04892B09F4FFCFFF90EF90DF90CF904C
:1009A000089588E40E94520408950E94D104882387
:1009B000E1F380E00E9452040895AC0180E00E94BF
:1009C000840308959093C5008093C40080E98093C8
:1009D000C10086E08093C20010926A011092690102
:1009E00081E08093680108951F920F920FB60F92D5
:1009F00011242F938F939F93AF93BF93EF93FF9304
:100A00002091C6009FB7F89480919B019FBF8032D0
:100A1000B9F0E7E7F1E0A0A1B1A12C9380A191A1E9
:100A2000019691A380A38759914011F4F1A3E0A30B
:100A30009FB7F894E7E7F1E084A18F5F84A39FBF9D
:100A4000FF91EF91BF91AF919F918F912F910F9057
:100A50000FBE0F901F901895CF93DF93D82FC62FFE
:100A60000E9484099C016C2F70E08FEF9FE70E9429
:100A7000E8086F5F7F4FC9010E94E8088D2F860F3D
:100A8000DF91CF910895CF93DF93909169019111F8
:100A900066C0C82FD0E0FE01EE0FFF1FEE0FFF1F54
:100AA000EC0FFD1FEC5FFE4F8481813009F057C0D1
:100AB00048C0FE01EE0FFF1FEE0FFF1FEC0FFD1FE2
:100AC000EC5FFE4F91818281891720F482818F5FD4
:100AD000828345C0FE01EE0FFF1FEE0FFF1FEC0FDC
:100AE000FD1FEC5FFE4F91818281981720F4828177
:100AF0008150828334C06AE080E00E942C05880F18
:100B0000982F990F990F890F9E01220F331F220FE3
:100B1000331FC20FD31FCC5FDE4F89836BE485E0A8
:100B20000E942C058B831BC0CE01880F991F880F54
:100B3000991FC80FD91FCC5FDE4F8B8181508B83EB
:100B40000EC0FE01EE0FFF1FEE0FFF1FEC0FFD1F8B
:100B5000EC5FFE4F8381882309F4ABCFE5CFDF91B3
:100B6000CF9108951F920F920FB60F9211242F93D9
:100B70003F934F935F936F937F938F939F93EF93E5
:100B8000FF9380E090E041E050E020916501243641
:100B9000D9F49C01FC01EE0FFF1FEE0FFF1FE80FC1
:100BA000F91FEC5FFE4F6081653008F45AC0FC010C
:100BB000EE0FFF1FEE0FFF1FE80FF91FEC5FFE4F58
:100BC00060816830B0F14DC09C01FC01EE0FFF1F49
:100BD000EE0FFF1FE80FF91FEC5FFE4F728160916F
:100BE0006501761314C060916501643609F051C047
:100BF0000EC0F901EE0FFF1FEE0FFF1FE20FF31FF4
:100C0000EC5FFE4F6081683008F451C066C0019609
:100C10008630910509F0B9CF80916501843619F4C9
:100C20001092650170C0809165018F5F80936501AE
:100C30006AC0FC01EE0FFF1FEE0FFF1F2E0F3F1FBC
:100C4000F901EC5FFE4F20816BB1FA0102C0EE0F9B
:100C5000FF1F2A95E2F79F012095309526232BB997
:100C6000B3CFF901EE0FFF1FEE0FFF1F2E0F3F1F37
:100C7000F901EC5FFE4F208165B1FA0102C0EE0F71
:100C8000FF1F2A95E2F79F0120953095262325B96D
:100C90009BCFFC01EE0FFF1FEE0FFF1FE80FF91FA8
:100CA000EC5FFE4F6081653008F0A3CF16C0F901FC
:100CB000EE0FFF1FEE0FFF1F2E0F3F1FF901EC5F1E
:100CC000FE4F20816BB1FA0102C0EE0FFF1F2A9583
:100CD000E2F79F01262B2BB99ACFF901EE0FFF1FE8
:100CE000EE0FFF1F2E0F3F1FF901EC5FFE4F20811B
:100CF00065B1FA0102C0EE0FFF1F2A95E2F79F01CE
:100D0000262B25B984CFFF91EF919F918F917F91F1
:100D10006F915F914F913F912F910F900FBE0F9068
:100D20001F9018951F920F920FB60F9211242F93B8
:100D30003F934F935F936F937F938F939F93AF9363
:100D4000BF93EF93FF93809164018091640186309B
:100D500020F4809164010E944305809164018830F1
:100D600059F480913D0190913E01009729F001973F
:100D700090933E0180933D01809164018F5F809349
:100D80006401893031F495B188E1892785B91092E1
:100D90006401FF91EF91BF91AF919F918F917F91EE
:100DA0006F915F914F913F912F910F900FBE0F90D8
:100DB0001F90189580E090E00E94430C6F3F2FEF4A
:100DC00072078207910521F46FEE7EEB8DEA9EEDAE
:100DD000CB010E9489090E948409AC01990F660B1E
:100DE000770B80E090E00E94490C089584B18F61F8
:100DF00084B98AB1806E8AB985B1807E85B98BB19C
:100E00008F718BB985B1876F85B984E090E00E94BE
:100E10003B0C809363010E94DA068FB7F894E7E7F2
:100E2000F1E0F1A3E0A3F3A3E2A314A28FBFC0E01B
:100E3000D0E06AE080E00E942C05880F982F990F7F
:100E4000990F890FFE01EE0FFF1FEE0FFF1FEC0F32
:100E5000FD1FEC5FFE4F81832196C630D10549F717
:100E600014BC85E085BD16BCEEE6F0E080818160B3
:100E700080831092B00082E08093B1001092B200A3
:100E8000E0E7F0E080818160808387E690E00E9467
:100E9000E20478942FEF63ED80E3215060408040BE
:100EA000E1F700C0000040E061E08FE391E00E94C4
:100EB000280244EF51E060E070E08FE391E00E948F
:100EC000750064E18FE391E00E94090260E08FE326
:100ED00091E00E940F0262E08FE391E00E94150210
:100EE0008FE391E00E94DC0202976C019FEFE1EE3C
:100EF000F4E09150E040F040E1F700C0000061E014
:100F000070E08FE391E00E9404022FEF63ED80E335
:100F1000215060408040E1F700C00000FF24F394BE
:100F2000612CC7E7D1E00F2EF4E0AF2EF1E0BF2E29
:100F3000F02D11E00F2EFAEF4F2E512CF02D712CC9
:100F400002E00F2EFBE68F2EF1E09F2EF02D212CDC
:100F50006894332435F89FB7F8948CA19FBF8823F9
:100F600009F409C120916901222309F40AC103C1CE
:100F7000DBA3CAA39FB7F8948CA181508CA39FBF19
:100F8000E0916A01EC3028F010936801E22F672CA1
:100F900002C0E11106C080916301831302C0709208
:100FA000680181E08E0F80936A01F0E0E559FE4F01
:100FB00030833D3091F4662071F280916801811197
:100FC00003C01093690104C070926A011093680114
:100FD0003092670120926601BECF612E3A3009F44B
:100FE000BACF672CB8CFF401908180916301981338
:100FF0005CC0A0916A01A33008F457C0418182818E
:10100000853608F084E6B4E6B81BF401E38080E09E
:1010100090E050E09C01BA01082E02C075956795DA
:101020000A94E2F760FF3CC0FC01EE0FFF1FEE0FD9
:10103000FF1FE80FF91FEC5FFE4FB183A430C8F02B
:10104000F2E0EF120CC0FC01EE0FFF1FEE0FFF1FCE
:10105000E80FF91FEC5FFE4F138204830AC0FC0106
:10106000EE0FFF1FEE0FFF1FE80FF91FEC5FFE4FA3
:101070001483F901EE0FFF1FEE0FFF1FE20FF31FA6
:10108000EC5FFE4F6481623059F4B901660F771F3F
:10109000660F771F260F371FF901EC5FFE4FB283F3
:1010A00001968630910509F0B5CF70926A01709271
:1010B00069011093680180913D0190913E01892B57
:1010C00009F042C0F1102CC06CE3872D0E942C0562
:1010D0008C31D1F58FE391E00E94E0027C016C2D10
:1010E000802F0E942C05682F70E0E616F706B9F3F2
:1010F0008FE391E00E94040264E6872D0E942C0594
:1011000090E09C01220F331F880F991F880F991FB1
:10111000880F991F820F931F90933E0180933D018A
:101120008FE391E00E945A01882339F08FE391E028
:101130000E9469028130924031F450923E01409207
:101140003D01F12E01C0F72C80916601909167015D
:10115000009709F400CF019790936701809366018F
:10116000892B09F0F8CEF501148311871687138BAC
:10117000108F158FF0CE80916901813009F09BCFDF
:1011800032CFEAA1FBA13191FBA3EAA3E759F140D9
:1011900009F0F0CEEDCECF93DF93CFE3D1E084EF33
:1011A00091E0A0E0B0E08C839D83AE83BF838AE0B2
:1011B000E2E2F1E0A1E5B1E001900D928A95E1F75C
:1011C0001C8E82E08D8F1AA21BA2DF91CF91089511
:1011D00097FB072E16F4009407D077FD09D00E94E4
:1011E000240907FC05D03EF4909581959F4F089502
:1011F000709561957F4F0895A1E21A2EAA1BBB1B23
:10120000FD010DC0AA1FBB1FEE1FFF1FA217B307D2
:10121000E407F50720F0A21BB30BE40BF50B661FE8
:10122000771F881F991F1A9469F7609570958095AC
:1012300090959B01AC01BD01CF010895EE0FFF1FFA
:101240000590F491E02D0994AA1BBB1B51E107C046
:10125000AA1FBB1FA617B70710F0A61BB70B881F46
:10126000991F5A95A9F780959095BC01CD010895D5
:101270008F929F92AF92BF92CF92DF92EF92FF92A6
:10128000CF93DF93EC01688179818A819B8161151D
:1012900071058105910521F464E279ED8BE597E014
:1012A0002DE133EF41E050E00E94740C49015A01F6
:1012B0009B01AC01A7EAB1E40E94930C6B017C0195
:1012C000ACEEB4EFA50194010E94A10CDC01CB01AE
:1012D0008C0D9D1DAE1DBF1DB7FF03C00197A10959
:1012E000B04888839983AA83BB839F77DF91CF918E
:1012F000FF90EF90DF90CF90BF90AF909F908F9036
:1013000008950E943809089580E091E00E9438090C
:101310000895A0E0B0E08093000190930101A093B4
:101320000201B09303010895A0E0B0E0EAE9F9E01A
:101330000C94B60CAE014B5F5F4FFA016191719155
:10134000AF0180919E0190919F010E94AA09E2E065
:101350000C94D20CABE0B0E0E0EBF9E00C94A60CFE
:101360006C017B018A01FC0117821682838181FF57
:10137000CCC1CE0101963C01F6019381F70193FDAA
:10138000859193FF81917F01882309F4BAC1853249
:1013900039F493FD859193FF81917F01853229F482
:1013A000B60190E00E94A10BE7CF912C212C312CAB
:1013B000FFE1F315D8F08B3279F038F4803279F010
:1013C0008332A1F4232D20611DC08D3261F0803362
:1013D00069F4232D216016C0832D8260382EE32D01
:1013E000E4603E2E2AC0F32DF8601DC037FC2DC0EE
:1013F00020ED280F2A3040F08E32B9F436FC81C13E
:10140000232D2064322E19C036FE06C08AE0989E35
:10141000200D1124922E11C0EAE02E9E200D1124E1
:10142000222EF32DF0623F2E08C08C3621F4832D3E
:101430008068382E02C0883641F4F70193FD85910B
:1014400093FF81917F018111B3CF982F9F7D955498
:10145000933028F40C5F1F4F9FE399830DC08336B0
:1014600031F0833771F0833509F059C021C0F8019C
:10147000808189830E5F1F4F88248394912C5301B0
:1014800013C02801F2E04F0E511CF801A080B1807A
:1014900036FE03C0692D70E002C06FEF7FEFC5011B
:1014A0000E94960B4C018201F32DFF773F2E16C050
:1014B000280122E0420E511CF801A080B18036FEC6
:1014C00003C0692D70E002C06FEF7FEFC5010E947D
:1014D0008B0B4C01F32DF0683F2E820133FC1BC0B7
:1014E000822D90E088169906B0F4B60180E290E073
:1014F0000E94A10B2A94F4CFF50137FC859137FEA9
:1015000081915F01B60190E00E94A10B21102A9405
:1015100021E0821A91088114910471F7E8C08436A1
:1015200011F0893641F5F80137FE07C060817181FD
:10153000828193810C5F1F4F08C060817181072EEB
:10154000000C880B990B0E5F1F4FF32DFF763F2E7B
:1015500097FF09C090958095709561957F4F8F4F4B
:101560009F4FF0683F2E2AE030E0A3010E94DD0B80
:10157000882E861845C0853731F4232D2F7EB22E54
:101580002AE030E025C0932D997FB92E8F36C1F027
:1015900018F4883579F0B5C0803719F0883721F014
:1015A000B0C0E92FE061BE2EB4FE0DC0FB2DF4608B
:1015B000BF2E09C034FE0AC0292F2660B22E06C0F5
:1015C00028E030E005C020E130E002C020E132E058
:1015D000F801B7FE07C060817181828193810C5F41
:1015E0001F4F06C06081718180E090E00E5F1F4F49
:1015F000A3010E94DD0B882E8618FB2DFF773F2E5E
:1016000036FE0DC0232D2E7FA22E891458F434FEF1
:101610000BC032FC09C0832D8E7EA82E05C0B82CCD
:10162000A32C03C0B82C01C0B92CA4FE0FC0FE012E
:10163000E80DF11D8081803321F49A2D997EA92E29
:1016400009C0A2FE06C0B394B39404C08A2D867864
:1016500009F0B394A3FC11C0A0FE06C0B21488F434
:10166000280C922C9B180EC0B21460F4B60180E2D4
:1016700090E00E94A10BB394F7CFB21418F42B188A
:1016800002C0982C212CA4FE10C0B60180E390E08B
:101690000E94A10BA2FE17C0A1FC03C088E790E046
:1016A00002C088E590E0B6010CC08A2D867859F01A
:1016B000A1FE02C08BE201C080E2A7FC8DE2B60170
:1016C00090E00E94A10B891438F4B60180E390E009
:1016D0000E94A10B9A94F7CF8A94F301E80DF11DB3
:1016E0008081B60190E00E94A10B8110F5CF2220ED
:1016F00009F442CEB60180E290E00E94A10B2A9448
:10170000F6CFF6018681978102C08FEF9FEF2B966F
:10171000E2E10C94C20CFC01059061507040011094
:10172000D8F7809590958E0F9F1F0895FC0161500A
:10173000704001900110D8F7809590958E0F9F1FF3
:1017400008950F931F93CF93DF93FB01238121FD16
:1017500003C08FEF9FEF2CC022FF16C04681578138
:10176000248135814217530744F4A081B1819D0142
:101770002F5F3F4F318320838C93268137812F5FEA
:101780003F4F3783268314C08B01EC01FB0100849B
:10179000F185E02D0995892BE1F6D80116968D91FA
:1017A0009C911797019617969C938E931697CE014E
:1017B000DF91CF911F910F910895FA01AA27283048
:1017C00051F1203181F1E8946F936E7F6E5F7F4F0E
:1017D0008F4F9F4FAF4FB1E03ED0B4E03CD0670F8A
:1017E000781F891F9A1FA11D680F791F8A1F911DDD
:1017F000A11D6A0F711D811D911DA11D20D009F42D
:1018000068943F912AE0269F11243019305D31936E
:10181000DEF6CF010895462F4770405D4193B3E057
:101820000FD0C9F7F6CF462F4F70405D4A3318F0FE
:10183000495D31FD4052419302D0A9F7EACFB4E0AF
:10184000A6959795879577956795BA95C9F7009767
:101850006105710508959B01AC010A2E0694579508
:10186000479537952795BA95C9F7620F731F841F5F
:10187000951FA01D0895F999FECF92BD81BDF89ADC
:10188000992780B50895A6E1B0E044E050E00C94BB
:10189000580C242F0E94670C252F0E94670C0C9473
:1018A000510C0E94660C272F0C94670CDC01CB01B5
:1018B000FC01F999FECF06C0F2BDE1BDF89A319660
:1018C00000B40D9241505040B8F70895262FF99971
:1018D000FECF1FBA92BD81BD20BD0FB6F894FA9A13
:1018E000F99A0FBE01960895052E97FB1EF40094F9
:1018F0000E948B0C57FD07D00E94FC0807FC03D008
:101900004EF40C948B0C50954095309521953F4F9B
:101910004F4F5F4F089590958095709561957F4FDB
:101920008F4F9F4F08950E94DD0CA59F900DB49F8F
:10193000900DA49F800D911D11240895B7FF0C9464
:10194000930C0E94930C821B930B08952F923F924D
:101950004F925F926F927F928F929F92AF92BF92BF
:10196000CF92DF92EF92FF920F931F93CF93DF936B
:10197000CDB7DEB7CA1BDB0B0FB6F894DEBF0FBEC8
:10198000CDBF09942A88398848885F846E847D8415
:101990008C849B84AA84B984C884DF80EE80FD8017
:1019A0000C811B81AA81B981CE0FD11D0FB6F8948D
:1019B000DEBF0FBECDBFED010895A29FB001B39F62
:1019C000C001A39F700D811D1124911DB29F700D48
:0C19D000811D1124911D0895F894FFCF93
:1019DC00010000000000640001010064000102002D
:1019EC006400010500640001060064000107006446
:1019FC0000017EFF06000100000000EF66726967BF
:0C1A0C0067696E206E61636B0A0D0000BC
:00000001FF
